:1000000049C16DC13BC56BC16AC1C2C468C167C18A
:1000100066C165C164C163C162C161C160C1AED561
:1000200080A83FD300408D142002A1C8DA12817F3E
:10003000D9F1DB40A6AF000000000000005F000027
:100040000007000700147F147F14242A7F2A12233C
:100050001308646236495620500008070300001C4C
:100060002241000041221C002A1C7F1C2A08083E55
:100070000808008070300008080808080000606068
:100080000020100804023E5149453E00427F4000D6
:1000900072494949462141494D331814127F1027AE
:1000A000454545393C4A49493141211109073649FD
:1000B000494936464949291E0000140000004034D1
:1000C00000000008142241141414141400412214D6
:1000D0000802015909063E415D594E7C1211127CFD
:1000E0007F494949363E414141227F4141413E7F5E
:1000F000494949417F090909013E414151737F083E
:1001000008087F00417F41002040413F017F0814E3
:1001100022417F404040407F021C027F7F04081044
:100120007F3E4141413E7F090909063E4151215E22
:100130007F09192946264949493203017F01033FB6
:100140004040403F1F2040201F3F4038403F631445
:1001500008146303047804036159494D43007F4147
:1001600041410204081020004141417F0402010284
:1001700004404040404000030708002054547840A9
:100180007F284444383844444428384444287F383D
:100190005454541800087E090218A4A49C787F08BF
:1001A00004047800447D40002040403D007F10283A
:1001B000440000417F40007C047804787C080404FB
:1001C000783844444438FC1824241818242418FC93
:1001D0007C08040408485454542404043F44243C38
:1001E0004040207C1C2040201C3C4030403C4428A7
:1001F0001028444C9090907C4464544C4400083641
:1002000041000000770000004136080002010204AE
:1002100002FFFFFFFFFF09024300020100803209D5
:100220000400000102020100052400100104240260
:1002300002052406000105240103010705830308C4
:1002400000FF09040100020A00000007050102087E
:1002500000000705810208000018035600550053EE
:100260000042002000530065007200690061006CCC
:1002700000040309041201100102000008D0167ED8
:1002800008000100020001A120000000000200039C
:100290000000AA0711241FBECFE5D2E0DEBFCDBF0C
:1002A00010E0A0E6B0E0E6E8FFE002C005900D92A5
:1002B000A437B107D9F721E0A4E7B0E001C01D924F
:1002C000A531B207E1F711E0CAE4D1E003C02197FC
:1002D000FE0151D6C934D107D1F73CD552C690CED4
:1002E000AF92BF92CF92DF92EF92FF920F931F9344
:1002F000CF93DF936C017B018B01040F151FEB0182
:100300005E01AE18BF08C017D10759F06991D60138
:10031000ED91FC910190F081E02DC6010995892BAA
:1003200079F7C501DF91CF911F910F91FF90EF9069
:10033000DF90CF90BF90AF9008958FB7F894ECE81E
:10034000F0E0F18FE08FF38FE28F148E8FBF109269
:10035000F000089590E080E008958FEF2FEE31E0F7
:10036000C19AF9013197F1F7C198F9013197F1F785
:100370008150B1F70895B89ABA98B8980895C89579
:10038000C89598E087FF14C0B898C895C895BA98E2
:10039000C895C895BA9A880F9150A1F7C895C89585
:1003A000C895C895B898BA98C895C895BA9A089546
:1003B000B89AEBCFB89ABA9A88E7E1CFCF93C82F13
:1003C000F9DF80E0DCDF80EB8C0FD9DF80E0D7DF66
:1003D00080E1D5DFCF91CFCFCF93F0DFEBDF80E4AB
:1003E000CEDFC0E880E0CBDFC150E1F7CF91C3CFD3
:1003F000CF93C09174008C2FEFDFCF5FC770C09395
:100400007400D8DF80E0BBDF83EDB9DF8C2F880F6D
:10041000880F880FB4DFCF91AECF1F93CF93DF93B8
:10042000162FEA01288124FF16C0298138E82327E6
:100430002983212FFC01CE010296DC0131913D93ED
:1004400021501216DCF3612F02D31C5F1883DF9159
:10045000CF911F9108952AE52883EBCFBF92CF92C9
:10046000DF92EF92FF920F931F93CF93DF938091D0
:10047000F000835087FD4BC09091EF00ECE0F0E07E
:10048000E91BF109ED50FF4F9091EE00903108F01B
:10049000EBC030E020E06CE870E0281758F5909150
:1004A000A8009831F8F4DF01A20FB31F9C91A0912E
:1004B000A400B091A5009C934091A4005091A50088
:1004C0004F5F5F4F90E0443A590779F05093A50091
:1004D0004093A4004FB7F8949091A8009F5F909329
:1004E000A8004FBF2F5F3F4FD8CF7093A5006093F8
:1004F000A400F0CF8091A800803118F08FEF809396
:10050000F0008091F000181614F41092F000809121
:10051000610084FF41C0C0916000CF3F09F43CC03E
:100520004C2FC93008F048E08C2F841B809360006A
:100530008091D60098E889278093D600CC2301F1DA
:100540008091AC00C7E087FD1BC06091AA0070914C
:10055000AB0086FF29C1A7EDB0E0FB01942F849189
:100560008D9331969150D9F72FEF240F30E02F5F04
:100570003F4F260F371F3093AB002093AA00C42FA4
:100580006C2F87ED90E063D2CC5FCC3019F08FEF09
:1005900080936000C093610084E196B3987131F458
:1005A0008150D9F71092F1001092ED00BB24B39462
:1005B0008111B12C9091AD00B91659F1882339F110
:1005C000F89408E010E0C0E0D0E8DD2EDC0ED1BEEB
:1005D00042D27C0184E3E81689E0F8060CF4CD2DC4
:1005E000D6950150110989F78FEF8C0F81BF0C2F21
:1005F00010E00F5F1F4F84E3C82E89E0D82E81B72B
:100600008017110609F00CF4D8C0C1BF7894B092DD
:10061000AD0049EB50E08091D500882309F4E4C097
:10062000E091B800E83008F0DFC081E08E0F8093E1
:10063000B800F0E0A091D300B091D4009D9180E08B
:10064000A13DB80709F4CBC0B093D400A093D30068
:100650002FB7F8948091D50081508093D5002FBF9B
:10066000E055FF4F9083D7CF9D3209F096C0883078
:1006700009F047CF83EC8093D6008AE58093610030
:100680001092AC009081892F807601F18032E1F4E4
:10069000818120EE280F223048F48FEF97FD86816C
:1006A00090E89093AC00809360002BCF823239F4B5
:1006B0008091AE00811103C082E08093AE0097FD6F
:1006C00003C081E08093AF0080E026C022811092B9
:1006D000DF00918191110AC01092E0002FED30E00F
:1006E00082E03093AB002093AA0016C0953029F425
:1006F0002093F1002FED30E0F4CF9630A9F59381EF
:10070000913091F485E792E09093AB008093AA003A
:1007100082E190E49093AC0097819111C4CF9681CF
:10072000981708F6892FBFCF923041F486E192E006
:100730009093AB008093AA0083E4EBCF933049F70A
:10074000211108C081E792E09093AB008093AA004A
:1007500084E0DFCF2230E9F689E592E09093AB00A8
:100760008093AA0088E1D5CF983081F0993019F4B0
:100770002093A900BFCF9A3069F09B3009F0BACF1F
:100780009BE49093E20090930A01B4CF29EA30E011
:1007900081E0A7CF2FED30E0FBCF8091AC0087FF49
:1007A000B0CE10926000ADCEDB01E7EDF0E0942F0B
:1007B0008D9181939150E1F7D7CE4DD19C01245377
:1007C000394037FF03C09601281B390B2E153F0512
:1007D00014F4C1B7790181B78F5F81BF10CF5093F7
:1007E000D4004093D30034CF8091E10084FF17C040
:1007F0006091B800611104C08091AF00882379F046
:1008000041EE50E080EB90E008DE81E09091B8008E
:10081000983009F080E08093AF001092B80080918A
:10082000AE00882389F09091090194FF0DC049E042
:1008300051E0823099F468E087E892E0EEDD809143
:10084000AE0081508093AE00DF91CF911F910F9148
:10085000FF90EF90DF90CF90BF90089562E08FE817
:1008600092E0ECCF8091A80081110AC08CE190E168
:100870000197F1F700C00000F1DD90E080E00895FD
:100880009091F00097FF04C0813110F41092F000B5
:10089000E091A600F091A700819190E0E43AF90779
:1008A00071F0F093A700E093A6002FB7F894909111
:1008B000A80091509093A8002FBF90E008952CE8D5
:1008C00030E03093A7002093A600EFCF8091A800DE
:1008D00081110AC08CE190E10197F1F700C000009E
:1008E000BDDD90E080E00895E091A600F091A700C2
:1008F000808190E008958CE190E10197F1F700C0CC
:100900000000ACDD8091A80090E00895CF93DF93C4
:10091000D62FCFE18091D500883151F4C15041F0FC
:100920008CE190E10197F1F700C0000097DDF2CF74
:100930008091D500883149F1E091D100F091D20049
:10094000D0838091D1009091D200019620E0813D2A
:100950009207C1F09093D2008093D1009FB7F89492
:100960008091D5008F5F8093D5009FBF8CE190E18F
:100970000197F1F700C0000071DD81E090E0DF91A8
:10098000CF91089589EB90E0E5CF90E080E0F7CF3C
:100990001F920F920FB60F9211242F933F938F93B4
:1009A0009F93AF93BF938091880090918900A0910D
:1009B0008A00B0918B003091870023E0230F2D3700
:1009C00058F50196A11DB11D2093870080938800E2
:1009D00090938900A0938A00B0938B00809183004C
:1009E00090918400A0918500B09186000196A11D90
:1009F000B11D8093830090938400A0938500B093F1
:100A00008600BF91AF919F918F913F912F910F9051
:100A10000FBE0F901F90189526E8230F0296A11D78
:100A2000B11DD2CFA82FB92F80E090E041E050EA6D
:100A3000609530E009C02D9182279795879510F039
:100A400084279527305EC8F36F5FA8F30895EADF27
:100A50008D939D930895A6E088279927AA9569F01C
:100A60000197E1F3B399FCCFB39BFECF81E09927C7
:100A7000A6B3019611F0A871D9F70895CF93CFB717
:100A8000CF93C395B39BE9F7B39B0BC0B39B09C04E
:100A9000B39B07C0B39B05C0B39B03C0B39B01C00E
:100AA000D8C00F92DF93C091EF00DD27CD50DF4F0C
:100AB000012EB39B03C0DF910F90E6CF2F930F93CE
:100AC0001F934F932FEF4F6F06B303FB20F95F93F4
:100AD0003F9350E03BE065C016B30126502953FD1B
:100AE000C89556B3012703FB25F92F7306B3B1F060
:100AF0005027102713FB26F906B22230F0F000C071
:100B000016B3012703FB27F90126502906B224302A
:100B1000E8F54F77206816B30000F6CF50274F7DD9
:100B2000206206B2102F000000C006B30026502934
:100B3000102713FB26F906B2E2CF4F7B06B32064E1
:100B400000C0DACF01265029187106B269F14E7F34
:100B50002160012F16B328C0002650294D7F06B210
:100B60002260102F29C0012650294B7F06B2246035
:100B7000012F2DC016B301265029477F28600000A1
:100B800006B22EC04F7E06B3206130C0422706B3A6
:100B9000499300265029102706B24FEF13FB20F986
:100BA000297F16B379F2187159F10126502906B23E
:100BB000012703FB21F9237F06B371F20026502998
:100BC0003150D0F006B2102713FB22F9277E16B35E
:100BD00051F201265029012703FB06B223F92F7C8D
:100BE00049F2000006B3102713FB24F90026502910
:100BF00006B22F7939F270CF10E21ABF00271CC05D
:100C00003B503195C31BD04010E21ABF0881033C12
:100C100021F10B3411F12091ED001981110F121304
:100C2000EDCF4A81441F093669F10D3211F0013EC2
:100C300029F74F7009F0042F0093F2003F915F9164
:100C40004F911F910F912F91DF910F90CAB7C5FD62
:100C500018CFCF91CFBFCF9118952091F2002223CA
:100C600069F31091F0001123D1F53430D2F13093B3
:100C7000F0002093EE001091EF003BE0311B309329
:100C8000EF002FC00091F00001304CF50AE54F70E5
:100C900049F43091610034FD25C000936100C6ED38
:100CA000D0E024C0433049F03091E10034FD1AC057
:100CB0000093E100C2EED0E019C03091090134FD8B
:100CC00011C000930901CAE0D1E010C0052710E06F
:100CD00000C021C0052710E0C89508BB14C03AE544
:100CE00001C032ED032EC0E0D0E032E017B318614E
:100CF000C39A08B317BB58E120E84FEF20FF052740
:100D000008BB279517951C3F28F700004552B0F700
:100D100020FF0527279508BB17951C3FB8F629919A
:100D20003A9561F7077E1091F100110F08BBC25090
:100D3000D04011F01093ED0010E21ABF086017B315
:100D4000177E402F477E54E05A95F1F708BB17BB3A
:100D500048BB74CF78948AB582608ABD8AB58160B9
:100D60008ABD83B7826083BF83B7816083BF89B741
:100D7000826089BF80B7826080BF80B7816080BF9A
:100D8000329A319A309A379AF89488B3877E88BB22
:100D9000BB9A27EA86E99CE0215080409040E1F729
:100DA00000C00000BB98AC9A8BB780628BBF8BE40D
:100DB0008093E20080930A018AE58093E1008093AA
:100DC00009011092AE001092AF0089EB90E0909371
:100DD000D2008093D1009093D4008093D3001092DE
:100DE000D50087E790E0A9DA78948FB7F894C0909F
:100DF0008800D0908900E0908A00F0908B008FBF2F
:100E0000ECE1F0E13197F1F700C0000027DB2FB7EC
:100E1000F8948091880090918900A0918A00B09107
:100E20008B002FBF8C199D09AE09BF09843F9140EB
:100E3000A105B1052CF387B38A7F87BB88B38A7F6E
:100E400088BBB8DA80E09BDACEE1D0E0FE01849185
:100E500096DA2196F0E0C633DF07C1F78CDAC0E0FE
:100E60008C2FBADACF5FC830D9F7809174008093A5
:100E7000750010927600880F8670A0DAB99A6DDA44
:100E800000E010E087E790E036DD892B69F187E725
:100E900090E0E8DC8F7780320CF43EC08052990BF2
:100EA000EC01CC0FDD1FCC0FDD1FC80FD91F82DA7C
:100EB00080E465DAF12CE12CCA5CDF4FFE01EE0D17
:100EC000FF1D84915CDA2FEFE21AF20A85E0E81642
:100ED000F104A1F780E053DA4EDA809176008F5F5B
:100EE000853138F4809376000115110559F288D8C0
:100EF000C9CF1092760080917500873049F478DA76
:100F00008091750090917400890F877057DAECCF4B
:100F10008F5F80937500F4CF8A30A1F41092760031
:100F200080917500873051F463DA8091750090915B
:100F30007400890F877042DA10DAD6CF8F5F809302
:100F40007500F3CF8D3019F410927600D9CF873029
:100F500059F6F2CFE7E7F0E01382128288EE93E0D1
:100F6000A0E0B0E084839583A683B78386E690E013
:100F7000918380830895EE0FFF1F0590F491E02D7B
:060F80000994F894FFCF74
:100F8600FF5A0000000086047001AA019D017B043F
:040F960032046604B7
:00000001FF
